:040000008A11112828
:10000800FE00030EF0000408F1000A08F200831253
:1000180003137F08F3008A1116288A111328830115
:100028008A114A288B130B1C3E28061E1F28831290
:10003800031306142228831203130610861E282889
:100048008312031386142B28831203138610061FAA
:10005800312883120313061534288312031306115B
:10006800861F3A288312031386153D28831203132B
:1000780086110B108B177308FF0072088A0071082D
:100088008400700E8300FE0E7E0E09008316031393
:100098009B01F03086000F308312031386008B1506
:0600A8000B108B17562817
:04400E0009FFFDFFAA
:00000001FF
